{
  "contractName": "Vault",
  "abi": [
    {
      "inputs": [
        {
          "internalType": "contract IERC20",
          "name": "tokenAddress",
          "type": "address"
        }
      ],
      "stateMutability": "nonpayable",
      "type": "constructor"
    },
    {
      "anonymous": false,
      "inputs": [
        {
          "indexed": true,
          "internalType": "address",
          "name": "previousOwner",
          "type": "address"
        },
        {
          "indexed": true,
          "internalType": "address",
          "name": "newOwner",
          "type": "address"
        }
      ],
      "name": "OwnershipTransferred",
      "type": "event"
    },
    {
      "inputs": [],
      "name": "NeonToken",
      "outputs": [
        {
          "internalType": "contract IERC20",
          "name": "",
          "type": "address"
        }
      ],
      "stateMutability": "view",
      "type": "function",
      "constant": true
    },
    {
      "inputs": [],
      "name": "balanceMaxProfitRatio",
      "outputs": [
        {
          "internalType": "uint256",
          "name": "",
          "type": "uint256"
        }
      ],
      "stateMutability": "view",
      "type": "function",
      "constant": true
    },
    {
      "inputs": [],
      "name": "houseLive",
      "outputs": [
        {
          "internalType": "bool",
          "name": "",
          "type": "bool"
        }
      ],
      "stateMutability": "view",
      "type": "function",
      "constant": true
    },
    {
      "inputs": [],
      "name": "lockedInBets",
      "outputs": [
        {
          "internalType": "uint256",
          "name": "",
          "type": "uint256"
        }
      ],
      "stateMutability": "view",
      "type": "function",
      "constant": true
    },
    {
      "inputs": [],
      "name": "owner",
      "outputs": [
        {
          "internalType": "address",
          "name": "",
          "type": "address"
        }
      ],
      "stateMutability": "view",
      "type": "function",
      "constant": true
    },
    {
      "inputs": [],
      "name": "renounceOwnership",
      "outputs": [],
      "stateMutability": "nonpayable",
      "type": "function"
    },
    {
      "inputs": [
        {
          "internalType": "address",
          "name": "newOwner",
          "type": "address"
        }
      ],
      "name": "transferOwnership",
      "outputs": [],
      "stateMutability": "nonpayable",
      "type": "function"
    },
    {
      "inputs": [],
      "name": "balance",
      "outputs": [
        {
          "internalType": "uint256",
          "name": "",
          "type": "uint256"
        }
      ],
      "stateMutability": "view",
      "type": "function",
      "constant": true
    },
    {
      "inputs": [
        {
          "internalType": "uint256",
          "name": "_balanceMaxProfitRatio",
          "type": "uint256"
        }
      ],
      "name": "setBalanceMaxProfitRatio",
      "outputs": [],
      "stateMutability": "nonpayable",
      "type": "function"
    },
    {
      "inputs": [],
      "name": "toggleHouseLive",
      "outputs": [],
      "stateMutability": "nonpayable",
      "type": "function"
    },
    {
      "inputs": [
        {
          "internalType": "address",
          "name": "_address",
          "type": "address"
        }
      ],
      "name": "addAdmin",
      "outputs": [],
      "stateMutability": "nonpayable",
      "type": "function"
    },
    {
      "inputs": [
        {
          "internalType": "address",
          "name": "_address",
          "type": "address"
        }
      ],
      "name": "removeAdmin",
      "outputs": [],
      "stateMutability": "nonpayable",
      "type": "function"
    },
    {
      "inputs": [],
      "name": "balanceAvailableForBet",
      "outputs": [
        {
          "internalType": "uint256",
          "name": "",
          "type": "uint256"
        }
      ],
      "stateMutability": "view",
      "type": "function",
      "constant": true
    },
    {
      "inputs": [],
      "name": "maxProfit",
      "outputs": [
        {
          "internalType": "uint256",
          "name": "",
          "type": "uint256"
        }
      ],
      "stateMutability": "view",
      "type": "function",
      "constant": true
    },
    {
      "inputs": [
        {
          "internalType": "uint256",
          "name": "winnableAmount",
          "type": "uint256"
        }
      ],
      "name": "placeBet",
      "outputs": [],
      "stateMutability": "nonpayable",
      "type": "function"
    },
    {
      "inputs": [
        {
          "internalType": "address",
          "name": "player",
          "type": "address"
        },
        {
          "internalType": "uint256",
          "name": "winnableAmount",
          "type": "uint256"
        },
        {
          "internalType": "bool",
          "name": "win",
          "type": "bool"
        }
      ],
      "name": "settleBet",
      "outputs": [],
      "stateMutability": "nonpayable",
      "type": "function"
    }
  ],
  "bytecode": "0x608060405260016004556001600560006101000a81548160ff0219169083151502179055503480156200003157600080fd5b506040516200186938038062001869833981810160405281019062000057919062000213565b60016000819055506200007f62000073620000c760201b60201c565b620000cf60201b60201c565b80600260006101000a81548173ffffffffffffffffffffffffffffffffffffffff021916908373ffffffffffffffffffffffffffffffffffffffff1602179055505062000245565b600033905090565b6000600160009054906101000a900473ffffffffffffffffffffffffffffffffffffffff16905081600160006101000a81548173ffffffffffffffffffffffffffffffffffffffff021916908373ffffffffffffffffffffffffffffffffffffffff1602179055508173ffffffffffffffffffffffffffffffffffffffff168173ffffffffffffffffffffffffffffffffffffffff167f8be0079c531659141344cd1fd0a4f28419497f9722a3daafe3b4186f6b6457e060405160405180910390a35050565b600080fd5b600073ffffffffffffffffffffffffffffffffffffffff82169050919050565b6000620001c7826200019a565b9050919050565b6000620001db82620001ba565b9050919050565b620001ed81620001ce565b8114620001f957600080fd5b50565b6000815190506200020d81620001e2565b92915050565b6000602082840312156200022c576200022b62000195565b5b60006200023c84828501620001fc565b91505092915050565b61161480620002556000396000f3fe608060405234801561001057600080fd5b50600436106101005760003560e01c8063715018a611610097578063c28a426211610066578063c28a426214610251578063df88126f1461025b578063e433939314610279578063f2fde38b1461029557610100565b8063715018a6146101ed5780638da5cb5b146101f7578063b539cd5514610215578063b69ef8a81461023357610100565b80633b97e44e116100d35780633b97e44e146101795780635d1837b8146101975780636d4df861146101b357806370480275146101d157610100565b806310fe7c48146101055780631785f53c1461012157806327b548891461013d578063367572e31461015b575b600080fd5b61011f600480360381019061011a9190610cb1565b6102b1565b005b61013b60048036038101906101369190610d3c565b610455565b005b6101456104b8565b6040516101529190610d78565b60405180910390f35b6101636104be565b6040516101709190610df2565b60405180910390f35b6101816104e4565b60405161018e9190610d78565b60405180910390f35b6101b160048036038101906101ac9190610cb1565b610500565b005b6101bb610512565b6040516101c89190610e28565b60405180910390f35b6101eb60048036038101906101e69190610d3c565b610525565b005b6101f5610588565b005b6101ff61059c565b60405161020c9190610e52565b60405180910390f35b61021d6105c6565b60405161022a9190610d78565b60405180910390f35b61023b6105e2565b6040516102489190610d78565b60405180910390f35b610259610685565b005b6102636106b9565b6040516102709190610d78565b60405180910390f35b610293600480360381019061028e9190610e99565b6106bf565b005b6102af60048036038101906102aa9190610d3c565b61078e565b005b60011515600560009054906101000a900460ff16151514610307576040517f08c379a00000000000000000000000000000000000000000000000000000000081526004016102fe90610f49565b60405180910390fd5b60011515600660003373ffffffffffffffffffffffffffffffffffffffff1673ffffffffffffffffffffffffffffffffffffffff16815260200190815260200160002060009054906101000a900460ff1615151461039a576040517f08c379a000000000000000000000000000000000000000000000000000000000815260040161039190610fb5565b60405180910390fd5b6002600054036103df576040517f08c379a00000000000000000000000000000000000000000000000000000000081526004016103d690611021565b60405180910390fd5b60026000819055506103ef6105c6565b811115610431576040517f08c379a00000000000000000000000000000000000000000000000000000000081526004016104289061108d565b60405180910390fd5b806003600082825461044391906110dc565b92505081905550600160008190555050565b61045d610811565b6000600660008373ffffffffffffffffffffffffffffffffffffffff1673ffffffffffffffffffffffffffffffffffffffff16815260200190815260200160002060006101000a81548160ff02191690831515021790555050565b60045481565b600260009054906101000a900473ffffffffffffffffffffffffffffffffffffffff1681565b60006003546104f16105e2565b6104fb9190611110565b905090565b610508610811565b8060048190555050565b600560009054906101000a900460ff1681565b61052d610811565b6001600660008373ffffffffffffffffffffffffffffffffffffffff1673ffffffffffffffffffffffffffffffffffffffff16815260200190815260200160002060006101000a81548160ff02191690831515021790555050565b610590610811565b61059a600061088f565b565b6000600160009054906101000a900473ffffffffffffffffffffffffffffffffffffffff16905090565b60006004546105d36104e4565b6105dd9190611173565b905090565b6000600260009054906101000a900473ffffffffffffffffffffffffffffffffffffffff1673ffffffffffffffffffffffffffffffffffffffff166370a08231306040518263ffffffff1660e01b815260040161063f9190610e52565b602060405180830381865afa15801561065c573d6000803e3d6000fd5b505050506040513d601f19601f8201168201806040525081019061068091906111b9565b905090565b61068d610811565b600560009054906101000a900460ff1615600560006101000a81548160ff021916908315150217905550565b60035481565b600260005403610704576040517f08c379a00000000000000000000000000000000000000000000000000000000081526004016106fb90611021565b60405180910390fd5b60026000819055506107218260035461095590919063ffffffff16565b6003819055506001151581151503610781576107808383600260009054906101000a900473ffffffffffffffffffffffffffffffffffffffff1673ffffffffffffffffffffffffffffffffffffffff1661096b9092919063ffffffff16565b5b6001600081905550505050565b610796610811565b600073ffffffffffffffffffffffffffffffffffffffff168173ffffffffffffffffffffffffffffffffffffffff1603610805576040517f08c379a00000000000000000000000000000000000000000000000000000000081526004016107fc90611258565b60405180910390fd5b61080e8161088f565b50565b6108196109f1565b73ffffffffffffffffffffffffffffffffffffffff1661083761059c565b73ffffffffffffffffffffffffffffffffffffffff161461088d576040517f08c379a0000000000000000000000000000000000000000000000000000000008152600401610884906112c4565b60405180910390fd5b565b6000600160009054906101000a900473ffffffffffffffffffffffffffffffffffffffff16905081600160006101000a81548173ffffffffffffffffffffffffffffffffffffffff021916908373ffffffffffffffffffffffffffffffffffffffff1602179055508173ffffffffffffffffffffffffffffffffffffffff168173ffffffffffffffffffffffffffffffffffffffff167f8be0079c531659141344cd1fd0a4f28419497f9722a3daafe3b4186f6b6457e060405160405180910390a35050565b600081836109639190611110565b905092915050565b6109ec8363a9059cbb60e01b848460405160240161098a9291906112e4565b604051602081830303815290604052907bffffffffffffffffffffffffffffffffffffffffffffffffffffffff19166020820180517bffffffffffffffffffffffffffffffffffffffffffffffffffffffff83818316178352505050506109f9565b505050565b600033905090565b6000610a5b826040518060400160405280602081526020017f5361666545524332303a206c6f772d6c6576656c2063616c6c206661696c65648152508573ffffffffffffffffffffffffffffffffffffffff16610ac09092919063ffffffff16565b9050600081511115610abb5780806020019051810190610a7b9190611322565b610aba576040517f08c379a0000000000000000000000000000000000000000000000000000000008152600401610ab1906113c1565b60405180910390fd5b5b505050565b6060610acf8484600085610ad8565b90509392505050565b606082471015610b1d576040517f08c379a0000000000000000000000000000000000000000000000000000000008152600401610b1490611453565b60405180910390fd5b610b2685610bec565b610b65576040517f08c379a0000000000000000000000000000000000000000000000000000000008152600401610b5c906114bf565b60405180910390fd5b6000808673ffffffffffffffffffffffffffffffffffffffff168587604051610b8e9190611550565b60006040518083038185875af1925050503d8060008114610bcb576040519150601f19603f3d011682016040523d82523d6000602084013e610bd0565b606091505b5091509150610be0828286610c0f565b92505050949350505050565b6000808273ffffffffffffffffffffffffffffffffffffffff163b119050919050565b60608315610c1f57829050610c6f565b600083511115610c325782518084602001fd5b816040517f08c379a0000000000000000000000000000000000000000000000000000000008152600401610c6691906115bc565b60405180910390fd5b9392505050565b600080fd5b6000819050919050565b610c8e81610c7b565b8114610c9957600080fd5b50565b600081359050610cab81610c85565b92915050565b600060208284031215610cc757610cc6610c76565b5b6000610cd584828501610c9c565b91505092915050565b600073ffffffffffffffffffffffffffffffffffffffff82169050919050565b6000610d0982610cde565b9050919050565b610d1981610cfe565b8114610d2457600080fd5b50565b600081359050610d3681610d10565b92915050565b600060208284031215610d5257610d51610c76565b5b6000610d6084828501610d27565b91505092915050565b610d7281610c7b565b82525050565b6000602082019050610d8d6000830184610d69565b92915050565b6000819050919050565b6000610db8610db3610dae84610cde565b610d93565b610cde565b9050919050565b6000610dca82610d9d565b9050919050565b6000610ddc82610dbf565b9050919050565b610dec81610dd1565b82525050565b6000602082019050610e076000830184610de3565b92915050565b60008115159050919050565b610e2281610e0d565b82525050565b6000602082019050610e3d6000830184610e19565b92915050565b610e4c81610cfe565b82525050565b6000602082019050610e676000830184610e43565b92915050565b610e7681610e0d565b8114610e8157600080fd5b50565b600081359050610e9381610e6d565b92915050565b600080600060608486031215610eb257610eb1610c76565b5b6000610ec086828701610d27565b9350506020610ed186828701610c9c565b9250506040610ee286828701610e84565b9150509250925092565b600082825260208201905092915050565b7f486f757365206e6f74206c697665000000000000000000000000000000000000600082015250565b6000610f33600e83610eec565b9150610f3e82610efd565b602082019050919050565b60006020820190508181036000830152610f6281610f26565b9050919050565b7f596f7520617265206e6f7420616e2061646d696e000000000000000000000000600082015250565b6000610f9f601483610eec565b9150610faa82610f69565b602082019050919050565b60006020820190508181036000830152610fce81610f92565b9050919050565b7f5265656e7472616e637947756172643a207265656e7472616e742063616c6c00600082015250565b600061100b601f83610eec565b915061101682610fd5565b602082019050919050565b6000602082019050818103600083015261103a81610ffe565b9050919050565b7f4d617850726f6669742076696f6c6174696f6e00000000000000000000000000600082015250565b6000611077601383610eec565b915061108282611041565b602082019050919050565b600060208201905081810360008301526110a68161106a565b9050919050565b7f4e487b7100000000000000000000000000000000000000000000000000000000600052601160045260246000fd5b60006110e782610c7b565b91506110f283610c7b565b925082820190508082111561110a576111096110ad565b5b92915050565b600061111b82610c7b565b915061112683610c7b565b925082820390508181111561113e5761113d6110ad565b5b92915050565b7f4e487b7100000000000000000000000000000000000000000000000000000000600052601260045260246000fd5b600061117e82610c7b565b915061118983610c7b565b92508261119957611198611144565b5b828204905092915050565b6000815190506111b381610c85565b92915050565b6000602082840312156111cf576111ce610c76565b5b60006111dd848285016111a4565b91505092915050565b7f4f776e61626c653a206e6577206f776e657220697320746865207a65726f206160008201527f6464726573730000000000000000000000000000000000000000000000000000602082015250565b6000611242602683610eec565b915061124d826111e6565b604082019050919050565b6000602082019050818103600083015261127181611235565b9050919050565b7f4f776e61626c653a2063616c6c6572206973206e6f7420746865206f776e6572600082015250565b60006112ae602083610eec565b91506112b982611278565b602082019050919050565b600060208201905081810360008301526112dd816112a1565b9050919050565b60006040820190506112f96000830185610e43565b6113066020830184610d69565b9392505050565b60008151905061131c81610e6d565b92915050565b60006020828403121561133857611337610c76565b5b60006113468482850161130d565b91505092915050565b7f5361666545524332303a204552433230206f7065726174696f6e20646964206e60008201527f6f74207375636365656400000000000000000000000000000000000000000000602082015250565b60006113ab602a83610eec565b91506113b68261134f565b604082019050919050565b600060208201905081810360008301526113da8161139e565b9050919050565b7f416464726573733a20696e73756666696369656e742062616c616e636520666f60008201527f722063616c6c0000000000000000000000000000000000000000000000000000602082015250565b600061143d602683610eec565b9150611448826113e1565b604082019050919050565b6000602082019050818103600083015261146c81611430565b9050919050565b7f416464726573733a2063616c6c20746f206e6f6e2d636f6e7472616374000000600082015250565b60006114a9601d83610eec565b91506114b482611473565b602082019050919050565b600060208201905081810360008301526114d88161149c565b9050919050565b600081519050919050565b600081905092915050565b60005b838110156115135780820151818401526020810190506114f8565b60008484015250505050565b600061152a826114df565b61153481856114ea565b93506115448185602086016114f5565b80840191505092915050565b600061155c828461151f565b915081905092915050565b600081519050919050565b6000601f19601f8301169050919050565b600061158e82611567565b6115988185610eec565b93506115a88185602086016114f5565b6115b181611572565b840191505092915050565b600060208201905081810360008301526115d68184611583565b90509291505056fea264697066735822122002723ccd79ac6aced1ee9b064376950e0fe71df19fc3a7428e7ec1d38952a44464736f6c63430008100033",
  "immutableReferences": {},
  "source": "// SPDX-License-Identifier: MIT\npragma solidity ^0.8.13;\nimport \"@openzeppelin/contracts/access/Ownable.sol\";\nimport \"@openzeppelin/contracts/token/ERC20/utils/SafeERC20.sol\";\nimport \"@openzeppelin/contracts/security/ReentrancyGuard.sol\";\nimport \"@openzeppelin/contracts/token/ERC20/IERC20.sol\";\nimport \"@openzeppelin/contracts/utils/math/SafeMath.sol\";\n\nimport \"./interface/IVault.sol\";\n\ncontract Vault is ReentrancyGuard, Ownable{\n    using SafeMath for uint256;\n    using SafeERC20 for IERC20;\n\n    IERC20 public NeonToken;\n\n    constructor(IERC20 tokenAddress) {\n        NeonToken = tokenAddress;\n    }\n\n    // Funds that are locked in potentially winning bets. Prevents contract from committing to new bets that it cannot pay out.\n    uint public lockedInBets;\n    \n    // Balance-to-maxProfit ratio. Used to dynamically adjusts maxProfit based on balance.\n    uint public balanceMaxProfitRatio = 1;\n\n    bool public houseLive = true;\n\n    mapping(address => bool) private addressAdmin;\n\n\n    modifier admin {\n        require(addressAdmin[msg.sender] == true, \"You are not an admin\");\n        _;\n    }\n\n    modifier isHouseLive {\n        require(houseLive == true, \"House not live\");\n        _;\n    }\n\n    // Getter\n    //   \n    function balance() public view returns (uint) {\n        return NeonToken.balanceOf(address(this));\n    }\n\n    // Set balance-to-maxProfit ratio. \n    function setBalanceMaxProfitRatio(uint _balanceMaxProfitRatio) external onlyOwner {\n        balanceMaxProfitRatio = _balanceMaxProfitRatio;\n    }\n\n    // Methods\n    function toggleHouseLive() external onlyOwner {\n        houseLive = !houseLive;\n    }\n    //    -\n    function addAdmin(address _address) external onlyOwner {\n        addressAdmin[_address] = true;\n    }\n    //    -\n    function removeAdmin(address _address) external onlyOwner {\n        addressAdmin[_address] = false;\n    }\n\n    // Game methods\n    //    \n    function balanceAvailableForBet() public view returns (uint) {\n        // return balance() - lockedInBets - lockedInRewards;\n        return balance() - lockedInBets;\n    }\n\n    // Returns maximum profit allowed per bet. Prevents contract from accepting any bets with potential profit exceeding maxProfit.\n    function maxProfit() public view returns (uint) {\n        return balanceAvailableForBet() / balanceMaxProfitRatio;\n    }\n    \n    function placeBet(uint winnableAmount) external isHouseLive admin nonReentrant {\n        require(winnableAmount <= maxProfit(), \"MaxProfit violation\");\n        lockedInBets += winnableAmount;\n    }\n\n\n    function settleBet(address player, uint winnableAmount, bool win) external nonReentrant {\n        lockedInBets = lockedInBets.sub(winnableAmount);\n        if (win == true) {\n            // payable(player).transfer(winnableAmount);\n            NeonToken.safeTransfer(player,winnableAmount);\n        }\n    }\n}",
  "sourcePath": "/Users/choiwonhyeok/Documents/neon/back/contracts/Vault.sol",
  "compiler": {
    "name": "solc",
    "version": "0.8.16+commit.07a7930e.Emscripten.clang"
  },
  "schemaVersion": "3.4.8",
  "updatedAt": "2022-08-14T14:08:29.125Z",
  "networkType": "ethereum",
  "devdoc": {
    "kind": "dev",
    "methods": {
      "owner()": {
        "details": "Returns the address of the current owner."
      },
      "renounceOwnership()": {
        "details": "Leaves the contract without owner. It will not be possible to call `onlyOwner` functions anymore. Can only be called by the current owner. NOTE: Renouncing ownership will leave the contract without an owner, thereby removing any functionality that is only available to the owner."
      },
      "transferOwnership(address)": {
        "details": "Transfers ownership of the contract to a new account (`newOwner`). Can only be called by the current owner."
      }
    },
    "version": 1
  },
  "userdoc": {
    "kind": "user",
    "methods": {},
    "version": 1
  }
}