{
  "contractName": "VRFv2Center",
  "abi": [
    {
      "inputs": [
        {
          "internalType": "uint64",
          "name": "subscriptionId",
          "type": "uint64"
        }
      ],
      "stateMutability": "nonpayable",
      "type": "constructor"
    },
    {
      "inputs": [
        {
          "internalType": "address",
          "name": "have",
          "type": "address"
        },
        {
          "internalType": "address",
          "name": "want",
          "type": "address"
        }
      ],
      "name": "OnlyCoordinatorCanFulfill",
      "type": "error"
    },
    {
      "inputs": [],
      "name": "callbackGasLimit",
      "outputs": [
        {
          "internalType": "uint32",
          "name": "",
          "type": "uint32"
        }
      ],
      "stateMutability": "view",
      "type": "function",
      "constant": true
    },
    {
      "inputs": [
        {
          "internalType": "uint256",
          "name": "",
          "type": "uint256"
        }
      ],
      "name": "chainlinkReqsData",
      "outputs": [
        {
          "internalType": "uint128",
          "name": "nBets",
          "type": "uint128"
        },
        {
          "internalType": "uint128",
          "name": "blockNumber",
          "type": "uint128"
        }
      ],
      "stateMutability": "view",
      "type": "function",
      "constant": true
    },
    {
      "inputs": [
        {
          "internalType": "uint256",
          "name": "",
          "type": "uint256"
        }
      ],
      "name": "games",
      "outputs": [
        {
          "internalType": "contract IGame",
          "name": "",
          "type": "address"
        }
      ],
      "stateMutability": "view",
      "type": "function",
      "constant": true
    },
    {
      "inputs": [],
      "name": "maxBetsPerVRF",
      "outputs": [
        {
          "internalType": "uint32",
          "name": "",
          "type": "uint32"
        }
      ],
      "stateMutability": "view",
      "type": "function",
      "constant": true
    },
    {
      "inputs": [],
      "name": "nextReqBlocks",
      "outputs": [
        {
          "internalType": "uint256",
          "name": "",
          "type": "uint256"
        }
      ],
      "stateMutability": "view",
      "type": "function",
      "constant": true
    },
    {
      "inputs": [
        {
          "internalType": "uint256",
          "name": "requestId",
          "type": "uint256"
        },
        {
          "internalType": "uint256[]",
          "name": "randomWords",
          "type": "uint256[]"
        }
      ],
      "name": "rawFulfillRandomWords",
      "outputs": [],
      "stateMutability": "nonpayable",
      "type": "function"
    },
    {
      "inputs": [],
      "name": "s_requestId",
      "outputs": [
        {
          "internalType": "uint256",
          "name": "",
          "type": "uint256"
        }
      ],
      "stateMutability": "view",
      "type": "function",
      "constant": true
    },
    {
      "inputs": [
        {
          "internalType": "address",
          "name": "newGame",
          "type": "address"
        }
      ],
      "name": "addGame",
      "outputs": [],
      "stateMutability": "nonpayable",
      "type": "function"
    },
    {
      "inputs": [
        {
          "internalType": "address",
          "name": "toRemove",
          "type": "address"
        }
      ],
      "name": "removeGame",
      "outputs": [],
      "stateMutability": "nonpayable",
      "type": "function"
    },
    {
      "inputs": [
        {
          "internalType": "bytes32",
          "name": "_keyHash",
          "type": "bytes32"
        }
      ],
      "name": "setKeyHash",
      "outputs": [],
      "stateMutability": "nonpayable",
      "type": "function"
    },
    {
      "inputs": [
        {
          "internalType": "uint32",
          "name": "_maxBetsPerVRF",
          "type": "uint32"
        }
      ],
      "name": "setMaxBetsPerVRF",
      "outputs": [],
      "stateMutability": "nonpayable",
      "type": "function"
    },
    {
      "inputs": [
        {
          "internalType": "uint256",
          "name": "_nextReqBlocks",
          "type": "uint256"
        }
      ],
      "name": "setNextReqBlocks",
      "outputs": [],
      "stateMutability": "nonpayable",
      "type": "function"
    },
    {
      "inputs": [],
      "name": "sendRequestRandomness",
      "outputs": [
        {
          "internalType": "uint256",
          "name": "",
          "type": "uint256"
        }
      ],
      "stateMutability": "nonpayable",
      "type": "function"
    }
  ],
  "bytecode": "0x60a0604052737a1bac17ccc5b313516c5e16fb24f7659aa5ebed600160006101000a81548173ffffffffffffffffffffffffffffffffffffffff021916908373ffffffffffffffffffffffffffffffffffffffff1602179055507f4b09e658ed251bcafeebbc69400383d49f344ace09b9576fe248bb02c003fe9f60001b600255622625a0600360006101000a81548163ffffffff021916908363ffffffff16021790555060038060046101000a81548161ffff021916908361ffff160217905550600f600360066101000a81548163ffffffff021916908363ffffffff1602179055506009600455348015620000f557600080fd5b50604051620019513803806200195183398181016040528101906200011b919062000290565b600160009054906101000a900473ffffffffffffffffffffffffffffffffffffffff168073ffffffffffffffffffffffffffffffffffffffff1660808173ffffffffffffffffffffffffffffffffffffffff168152505050600160009054906101000a900473ffffffffffffffffffffffffffffffffffffffff166000806101000a81548173ffffffffffffffffffffffffffffffffffffffff021916908373ffffffffffffffffffffffffffffffffffffffff16021790555033600960006101000a81548173ffffffffffffffffffffffffffffffffffffffff021916908373ffffffffffffffffffffffffffffffffffffffff16021790555080600060146101000a81548167ffffffffffffffff021916908367ffffffffffffffff16021790555050620002c2565b600080fd5b600067ffffffffffffffff82169050919050565b6200026a816200024b565b81146200027657600080fd5b50565b6000815190506200028a816200025f565b92915050565b600060208284031215620002a957620002a862000246565b5b6000620002b98482850162000279565b91505092915050565b60805161166c620002e5600039600081816102b40152610308015261166c6000f3fe608060405234801561001057600080fd5b50600436106100cf5760003560e01c8063985447101161008c578063bce2466911610066578063bce24669146101ec578063d619e0f014610208578063d72d04db14610239578063e89e106a14610255576100cf565b80639854471014610196578063ae68dd8a146101b2578063aecbf7e6146101d0576100cf565b8063117a5b90146100d45780631fe543e31461010457806324f746971461012057806336e9ca8f1461013e578063485ba9f01461015c57806375e6448a1461017a575b600080fd5b6100ee60048036038101906100e99190610ddf565b610273565b6040516100fb9190610e8b565b60405180910390f35b61011e60048036038101906101199190610fff565b6102b2565b005b610128610372565b604051610135919061107a565b60405180910390f35b610146610388565b60405161015391906110a4565b60405180910390f35b61016461038e565b60405161017191906110a4565b60405180910390f35b610194600480360381019061018f9190610ddf565b610790565b005b6101b060048036038101906101ab91906110f5565b6107f4565b005b6101ba610858565b6040516101c7919061107a565b60405180910390f35b6101ea60048036038101906101e5919061114e565b61086e565b005b610206600480360381019061020191906111b9565b6108ec565b005b610222600480360381019061021d9190610ddf565b610b30565b604051610230929190611211565b60405180910390f35b610253600480360381019061024e91906111b9565b610b8c565b005b61025d610ca4565b60405161026a91906110a4565b60405180910390f35b6006818154811061028357600080fd5b906000526020600020016000915054906101000a900473ffffffffffffffffffffffffffffffffffffffff1681565b7f000000000000000000000000000000000000000000000000000000000000000073ffffffffffffffffffffffffffffffffffffffff163373ffffffffffffffffffffffffffffffffffffffff161461036457337f00000000000000000000000000000000000000000000000000000000000000006040517f1cf993f400000000000000000000000000000000000000000000000000000000815260040161035b929190611249565b60405180910390fd5b61036e8282610caa565b5050565b600360009054906101000a900463ffffffff1681565b60045481565b600060011515600760003373ffffffffffffffffffffffffffffffffffffffff1673ffffffffffffffffffffffffffffffffffffffff16815260200190815260200160002060009054906101000a900460ff16151514610423576040517f08c379a000000000000000000000000000000000000000000000000000000000815260040161041a906112cf565b60405180910390fd5b60006005600060085481526020019081526020016000206040518060400160405290816000820160009054906101000a90046fffffffffffffffffffffffffffffffff166fffffffffffffffffffffffffffffffff166fffffffffffffffffffffffffffffffff1681526020016000820160109054906101000a90046fffffffffffffffffffffffffffffffff166fffffffffffffffffffffffffffffffff166fffffffffffffffffffffffffffffffff168152505090504360045482602001516fffffffffffffffffffffffffffffffff16610500919061131e565b11158061053b5750600360069054906101000a900463ffffffff1663ffffffff1681600001516fffffffffffffffffffffffffffffffff1610155b1561070b5760008054906101000a900473ffffffffffffffffffffffffffffffffffffffff1673ffffffffffffffffffffffffffffffffffffffff16635d3b1d30600254600060149054906101000a900467ffffffffffffffff16600360049054906101000a900461ffff16600360009054906101000a900463ffffffff16600360069054906101000a900463ffffffff166040518663ffffffff1660e01b81526004016105ed9594939291906113a1565b6020604051808303816000875af115801561060c573d6000803e3d6000fd5b505050506040513d601f19601f820116820180604052508101906106309190611409565b600881905550604051806040016040528060016fffffffffffffffffffffffffffffffff168152602001436fffffffffffffffffffffffffffffffff1681525060056000600854815260200190815260200160002060008201518160000160006101000a8154816fffffffffffffffffffffffffffffffff02191690836fffffffffffffffffffffffffffffffff16021790555060208201518160000160106101000a8154816fffffffffffffffffffffffffffffffff02191690836fffffffffffffffffffffffffffffffff160217905550905050610787565b600560006008548152602001908152602001600020600001600081819054906101000a90046fffffffffffffffffffffffffffffffff168092919061074f90611436565b91906101000a8154816fffffffffffffffffffffffffffffffff02191690836fffffffffffffffffffffffffffffffff160217905550505b60085491505090565b600960009054906101000a900473ffffffffffffffffffffffffffffffffffffffff1673ffffffffffffffffffffffffffffffffffffffff163373ffffffffffffffffffffffffffffffffffffffff16146107ea57600080fd5b8060048190555050565b600960009054906101000a900473ffffffffffffffffffffffffffffffffffffffff1673ffffffffffffffffffffffffffffffffffffffff163373ffffffffffffffffffffffffffffffffffffffff161461084e57600080fd5b8060028190555050565b600360069054906101000a900463ffffffff1681565b600960009054906101000a900473ffffffffffffffffffffffffffffffffffffffff1673ffffffffffffffffffffffffffffffffffffffff163373ffffffffffffffffffffffffffffffffffffffff16146108c857600080fd5b80600360066101000a81548163ffffffff021916908363ffffffff16021790555050565b600960009054906101000a900473ffffffffffffffffffffffffffffffffffffffff1673ffffffffffffffffffffffffffffffffffffffff163373ffffffffffffffffffffffffffffffffffffffff161461094657600080fd5b6000600760008373ffffffffffffffffffffffffffffffffffffffff1673ffffffffffffffffffffffffffffffffffffffff16815260200190815260200160002060006101000a81548160ff02191690831515021790555060005b600680549050811015610b2b578173ffffffffffffffffffffffffffffffffffffffff16600682815481106109d9576109d861146e565b5b9060005260206000200160009054906101000a900473ffffffffffffffffffffffffffffffffffffffff1673ffffffffffffffffffffffffffffffffffffffff1603610b185760066001600680549050610a33919061149d565b81548110610a4457610a4361146e565b5b9060005260206000200160009054906101000a900473ffffffffffffffffffffffffffffffffffffffff1660068281548110610a8357610a8261146e565b5b9060005260206000200160006101000a81548173ffffffffffffffffffffffffffffffffffffffff021916908373ffffffffffffffffffffffffffffffffffffffff1602179055506006805480610add57610adc6114d1565b5b6001900381819060005260206000200160006101000a81549073ffffffffffffffffffffffffffffffffffffffff0219169055905550610b2d565b8080610b2390611500565b9150506109a1565b505b50565b60056020528060005260406000206000915090508060000160009054906101000a90046fffffffffffffffffffffffffffffffff16908060000160109054906101000a90046fffffffffffffffffffffffffffffffff16905082565b600960009054906101000a900473ffffffffffffffffffffffffffffffffffffffff1673ffffffffffffffffffffffffffffffffffffffff163373ffffffffffffffffffffffffffffffffffffffff1614610be657600080fd5b6006819080600181540180825580915050600190039060005260206000200160009091909190916101000a81548173ffffffffffffffffffffffffffffffffffffffff021916908373ffffffffffffffffffffffffffffffffffffffff1602179055506001600760008373ffffffffffffffffffffffffffffffffffffffff1673ffffffffffffffffffffffffffffffffffffffff16815260200190815260200160002060006101000a81548160ff02191690831515021790555050565b60085481565b600081905060005b600680549050811015610d8e57620249f05a11610cd0575050610d91565b60068181548110610ce457610ce361146e565b5b9060005260206000200160009054906101000a900473ffffffffffffffffffffffffffffffffffffffff1673ffffffffffffffffffffffffffffffffffffffff16638cf1273a85846040518363ffffffff1660e01b8152600401610d49929190611606565b600060405180830381600087803b158015610d6357600080fd5b505af1158015610d77573d6000803e3d6000fd5b505050508080610d8690611500565b915050610cb2565b50505b5050565b6000604051905090565b600080fd5b600080fd5b6000819050919050565b610dbc81610da9565b8114610dc757600080fd5b50565b600081359050610dd981610db3565b92915050565b600060208284031215610df557610df4610d9f565b5b6000610e0384828501610dca565b91505092915050565b600073ffffffffffffffffffffffffffffffffffffffff82169050919050565b6000819050919050565b6000610e51610e4c610e4784610e0c565b610e2c565b610e0c565b9050919050565b6000610e6382610e36565b9050919050565b6000610e7582610e58565b9050919050565b610e8581610e6a565b82525050565b6000602082019050610ea06000830184610e7c565b92915050565b600080fd5b6000601f19601f8301169050919050565b7f4e487b7100000000000000000000000000000000000000000000000000000000600052604160045260246000fd5b610ef482610eab565b810181811067ffffffffffffffff82111715610f1357610f12610ebc565b5b80604052505050565b6000610f26610d95565b9050610f328282610eeb565b919050565b600067ffffffffffffffff821115610f5257610f51610ebc565b5b602082029050602081019050919050565b600080fd5b6000610f7b610f7684610f37565b610f1c565b90508083825260208201905060208402830185811115610f9e57610f9d610f63565b5b835b81811015610fc75780610fb38882610dca565b845260208401935050602081019050610fa0565b5050509392505050565b600082601f830112610fe657610fe5610ea6565b5b8135610ff6848260208601610f68565b91505092915050565b6000806040838503121561101657611015610d9f565b5b600061102485828601610dca565b925050602083013567ffffffffffffffff81111561104557611044610da4565b5b61105185828601610fd1565b9150509250929050565b600063ffffffff82169050919050565b6110748161105b565b82525050565b600060208201905061108f600083018461106b565b92915050565b61109e81610da9565b82525050565b60006020820190506110b96000830184611095565b92915050565b6000819050919050565b6110d2816110bf565b81146110dd57600080fd5b50565b6000813590506110ef816110c9565b92915050565b60006020828403121561110b5761110a610d9f565b5b6000611119848285016110e0565b91505092915050565b61112b8161105b565b811461113657600080fd5b50565b60008135905061114881611122565b92915050565b60006020828403121561116457611163610d9f565b5b600061117284828501611139565b91505092915050565b600061118682610e0c565b9050919050565b6111968161117b565b81146111a157600080fd5b50565b6000813590506111b38161118d565b92915050565b6000602082840312156111cf576111ce610d9f565b5b60006111dd848285016111a4565b91505092915050565b60006fffffffffffffffffffffffffffffffff82169050919050565b61120b816111e6565b82525050565b60006040820190506112266000830185611202565b6112336020830184611202565b9392505050565b6112438161117b565b82525050565b600060408201905061125e600083018561123a565b61126b602083018461123a565b9392505050565b600082825260208201905092915050565b7f596f7520617265206e6f7420612067616d650000000000000000000000000000600082015250565b60006112b9601283611272565b91506112c482611283565b602082019050919050565b600060208201905081810360008301526112e8816112ac565b9050919050565b7f4e487b7100000000000000000000000000000000000000000000000000000000600052601160045260246000fd5b600061132982610da9565b915061133483610da9565b925082820190508082111561134c5761134b6112ef565b5b92915050565b61135b816110bf565b82525050565b600067ffffffffffffffff82169050919050565b61137e81611361565b82525050565b600061ffff82169050919050565b61139b81611384565b82525050565b600060a0820190506113b66000830188611352565b6113c36020830187611375565b6113d06040830186611392565b6113dd606083018561106b565b6113ea608083018461106b565b9695505050505050565b60008151905061140381610db3565b92915050565b60006020828403121561141f5761141e610d9f565b5b600061142d848285016113f4565b91505092915050565b6000611441826111e6565b91506fffffffffffffffffffffffffffffffff8203611463576114626112ef565b5b600182019050919050565b7f4e487b7100000000000000000000000000000000000000000000000000000000600052603260045260246000fd5b60006114a882610da9565b91506114b383610da9565b92508282039050818111156114cb576114ca6112ef565b5b92915050565b7f4e487b7100000000000000000000000000000000000000000000000000000000600052603160045260246000fd5b600061150b82610da9565b91507fffffffffffffffffffffffffffffffffffffffffffffffffffffffffffffffff820361153d5761153c6112ef565b5b600182019050919050565b600081519050919050565b600082825260208201905092915050565b6000819050602082019050919050565b61157d81610da9565b82525050565b600061158f8383611574565b60208301905092915050565b6000602082019050919050565b60006115b382611548565b6115bd8185611553565b93506115c883611564565b8060005b838110156115f95781516115e08882611583565b97506115eb8361159b565b9250506001810190506115cc565b5085935050505092915050565b600060408201905061161b6000830185611095565b818103602083015261162d81846115a8565b9050939250505056fea2646970667358221220e8319f591e5abab371bfbf35356b6fbbafcf54ce639400ac21bdbc7e3e51d95964736f6c63430008100033",
  "immutableReferences": {
    "10": [
      {
        "length": 32,
        "start": 692
      },
      {
        "length": 32,
        "start": 776
      }
    ]
  },
  "source": "// SPDX-License-Identifier: MIT\npragma solidity ^0.8.13;\n\nimport \"@chainlink/contracts/src/v0.8/interfaces/VRFCoordinatorV2Interface.sol\";\nimport \"@chainlink/contracts/src/v0.8/VRFConsumerBaseV2.sol\";\nimport \"@chainlink/contracts/src/v0.8/interfaces/LinkTokenInterface.sol\";\nimport \"./interface/IVRFCenter.sol\";\nimport \"./interface/IGame.sol\";\n\ncontract VRFv2Center is VRFConsumerBaseV2,IVRFCenter {\n    VRFCoordinatorV2Interface COORDINATOR;\n\n    // Your subscription ID.\n    uint64 s_subscriptionId;\n\n    address vrfCoordinator = 0x7a1BaC17Ccc5b313516C5E16fb24f7659aA5ebed; // Mumbai\n    bytes32 keyHash = 0x4b09e658ed251bcafeebbc69400383d49f344ace09b9576fe248bb02c003fe9f; // 500 gwei Key Hash\n    \n    // Gas limit to be used when call the function fulfillRandomWords.\n    uint32 public callbackGasLimit = 2500000;\n    // The default is 3, but you can set this higher.\n    uint16 requestConfirmations = 3;\n\n    // request random values\n    uint32 public maxBetsPerVRF = 15;\n    // This value should never change, it's equal to = ChainLinkVRF V1 blocks - 1, change it only if Chainlink Oracle will change the number of wait blocks\n    uint public nextReqBlocks = 9;\n\n\n\n\n    struct ChainlinkReqData {\n        uint128 nBets;\n        uint128 blockNumber;\n    }\n\n    mapping(uint256 => ChainlinkReqData) public chainlinkReqsData;\n\n    IGame[] public games;\n    mapping(address => bool) private addressGame;\n\n    // uint256[] public s_randomWords;\n    uint256 public s_requestId;\n    address s_owner;\n\n  constructor(uint64 subscriptionId) VRFConsumerBaseV2(vrfCoordinator) {\n    COORDINATOR = VRFCoordinatorV2Interface(vrfCoordinator);\n    s_owner = msg.sender;\n    s_subscriptionId = subscriptionId;\n  }\n\n    // modifier\n    modifier isGame {\n        require(addressGame[msg.sender] == true, \"You are not a game\");\n        _;\n    }\n\n    modifier onlyOwner() {\n    require(msg.sender == s_owner);\n    _;\n  }\n\n    \n    //    \n    function addGame(address newGame) external onlyOwner {\n        games.push(IGame(newGame));\n        addressGame[newGame] = true;\n    }\n\n\n    //     \n    function removeGame(address toRemove) external onlyOwner {\n        addressGame[toRemove] = false;\n        for (uint i = 0; i < games.length; i++) {\n            if (address(games[i]) == toRemove) {\n                games[i] = games[games.length - 1];\n                games.pop();\n                return;\n            }\n        }\n    }\n\n    // setter\n    function setKeyHash(bytes32 _keyHash) external onlyOwner {\n        keyHash = _keyHash;\n    }\n    function setMaxBetsPerVRF(uint32 _maxBetsPerVRF) external onlyOwner {\n        maxBetsPerVRF = _maxBetsPerVRF;\n    }\n    function setNextReqBlocks(uint _nextReqBlocks) external onlyOwner {\n        nextReqBlocks = _nextReqBlocks;\n    }\n\n  // Assumes the subscription is funded sufficiently.\n  function sendRequestRandomness() external isGame returns(uint256){\n    // Will revert if subscription is not set and funded.\n    ChainlinkReqData memory data = chainlinkReqsData[s_requestId];\n\n    if (data.blockNumber + nextReqBlocks <= block.number || data.nBets >= maxBetsPerVRF){\n        s_requestId = COORDINATOR.requestRandomWords(\n            keyHash,\n            s_subscriptionId,\n            requestConfirmations,\n            callbackGasLimit,\n            maxBetsPerVRF\n        );\n\n        chainlinkReqsData[s_requestId] = ChainlinkReqData({\n            nBets: 1,\n            blockNumber: uint128(block.number)\n        });\n    } else {\n        chainlinkReqsData[s_requestId].nBets++;\n    }\n\n    return s_requestId;\n  }\n\n\n  function fulfillRandomWords(\n    uint256 requestId, /* requestId */\n    uint256[] memory randomWords\n  ) internal override {         \n    uint256[] memory expandedValues = randomWords;\n    for (uint i = 0; i < games.length; i++) {\n        if (gasleft() <= 150000) {\n            return;\n        }\n        games[i].settleBet(requestId, expandedValues);\n    }\n  }\n\n}\n",
  "sourcePath": "/Users/choiwonhyeok/Documents/neon/back/contracts/VRFCenter.sol",
  "compiler": {
    "name": "solc",
    "version": "0.8.16+commit.07a7930e.Emscripten.clang"
  },
  "schemaVersion": "3.4.8",
  "updatedAt": "2022-08-14T14:08:29.139Z",
  "networkType": "ethereum",
  "devdoc": {
    "kind": "dev",
    "methods": {},
    "version": 1
  },
  "userdoc": {
    "kind": "user",
    "methods": {},
    "version": 1
  }
}